:030C7600011B005F
:100C37001209618F08EF6002F51BAF1BE4FCFDFE94
:030C4700120A5B33
:020C4A0080EB3D
:0F0C5E006572726F72002A2A2A2A2A2A2A2A000D
:060633008B178A188919DB
:10063900120C4C90000A74FEF0E4A3F0F51AC3E51D
:100649001A940874809480400302082BAB177E002B
:10065900E519251AF9EE3518FA90000BE029F9EE9B
:100669003AFA1204A312053F07412A07CE2D06E7DD
:100679003006F03106F932070233070B3407143517
:10068900071D36072637072F38073839074441072A
:100699004F42075A43076444076E45077846078265
:1006A9004807944C079C4E07B04F07BA5007C452ED
:1006B90007A655074661075162075C630766640729
:1006C9007065077A66078468078C69079E6E07B2AA
:1006D9006F07BC7007C67207A87500000741900034
:1006E90009743FF00207DB9000097406F00207DB8A
:1006F900900009745BF00207DB900009744FF00267
:1007090007DB9000097466F00207DB900009746D3D
:10071900F00207DB900009747DF00207DB90000905
:100729007407F00207DB900009747FF00207DB9081
:100739000009746FF00207DB0207D68000900009F8
:100749007477F00207DB8000900009747CF00207DF
:10075900DB80009000097439F080778000900009EF
:10076900745EF0806D80009000097479F080638078
:10077900009000097471F080598000900009747626
:10078900F0804F9000097404F08047900009743894
:10079900F0803F80009000097437F0803580009028
:1007A9000009743EF0802B8000900009745CF08091
:1007B9002180009000097473F0801780009000096F
:1007C9007450F0800D9000097440F08005E49000A9
:1007D90009F0AB177E00E519251AF9EE3518FA90DC
:1007E900000BE029F9EE3AFA9000011204BCB42E8C
:1007F9000D900009E02480F090000BE004F09000D7
:1008090009E0FFA3E0FD120C20120C4C90000AE055
:10081900FF780108800123D8FD90000AF0051A022B
:02082900064780
:01082B0022AA
:080A5B008F0C8E0B8D0A8C0933
:100A630078007C007D017BFF7A0C79647E007F092E
:100A730012047D750F01751000751107850C15851E
:100A83000B14850A138509127FFF7EE07DF57C0533
:100A9300AB15AA14A913A812D312050950107F810C
:100AA3007E697D677CFFA812C312050950097BFF8D
:100AB3007A0C795E020B4CAF15AE14AD13AC12EC8D
:100AC30033500E750E011204FB8F158E148D138C8B
:0F0AD30012E4F50DC3E50D940874809480505320
:100AE200E47B0AFAF9F8AF15AE14AD13AC12120B8F
:100AF200DCAF038F1674302516F516AB0FAA10A9BA
:100B0200111204E974FF2511F51174FF3510F51067
:100B1200AF15AE14AD13AC12E47B0AFAF9F8120B5E
:0F0B2200DC8F158E148D138C12EC4D4E4F60042A
:100B3100050D80A2E50E6401700BAB0FAA10A9117F
:0E0B4100742D1204E97B017A0079001206334C
:010B4F002283
:100C4C00E4F580D2A6C2A6120C6D7580FFD2A7C2A5
:020C5C00A722CD
:080C6D007F027E02DEFEDFFCC7
:010C7500225C
:100C20008F80D2A6C2A68D80D2A7C2A7120C6D75E6
:070C300080FFD2A7C2A7223A
:1009610075B0FFAFB0EFF4603985B009AFB0EFF407
:10097100600575B0FF80F5E5092409601A24FC6063
:100981001124FE6008147014750A028012750A039E
:10099100800D750A048008750A058003750A01AF88
:1009A1000A2275B0F0AFB0EF64F07003020A588507
:1009B100B00943090F6309FFAC09E41201A512084C
:1009C10060C004C005C006C0077F007E007D007CBA
:1009D10040120860A804A905AA06AB07D007D006F3
:1009E100D005D0041200FEE4FBFA798078C0120031
:1009F1000A1201D98F0B75B00FAFB0EF640F7002FF
:100A0100FF2285B0094309F06309FFAC09E4120133
:100A1100A5120860C004C005C006C0077F007E00A3
:100A21007D007C40120860A804A905AA06AB07D086
:100A310007D006D005D0041200FE1201D9EF25E03F
:100A410025E0250B2406F50AAFB0EF640F600575AC
:090A5100B00F80F4AF0A227F000F
:010A5A002279
:10000300020245E86480F8E933E83360110460F0E4
:10001300ED33EC337009E8FCE9FDEAFEEBFF220463
:1000230060DED3EB9FEA9EE99DE8C2E78CF0C2F75E
:1000330095F0400CE8CCF8E9CDF9EACEFAEBCFFB2A
:1000430012021085D0F05804700320D5B3E8047071
:10005300075002B2D502024F92D5EC0460F7E4CC0C
:10006300C0E0C398F8603B94186008400DD0E0FBF3
:10007300020227E4FBFAC9FC8028E830E406E4C95D
:10008300FBE4CAFCE830E305E4C9CACBFCE8540747
:100093006010F8C3E913F9EA13FAEB13FBEC13FC52
:1000A300D8F130F52FC3E49CFCEF9BFFEE9AFEEDF5
:1000B30099FDD0E0FBEF4E4D4C701222DB030202A0
:1000C3004CEC2CFCEF33FFEE33FEED33FDED30E76C
:1000D300EB020227EF2BFFEE3AFEED39FDD0E0FBFA
:1000E30050130BBB000302024FED13FDEE13FEEFA3
:0800F30013FFEC13FC020227CD
:1000FB0002024FEC5D046005E859047003020245EF
:10010B00120210580460F6EC4860F2EC7004FDFE2D
:10011B00FF22C860DB2481C85009C39860025006D7
:10012B0002024C9850CAF582E9294B4A7005AB8202
:10013B0002023B75F0007C1A7880C3EF9BEE9AEDC0
:10014B0099400DC3EF9BFFEE9AFEED99FDE842F04F
:10015B00DC23ACF0D0E0FFD0E0FED0E0FDAB8220A2
:10016B00E7101BEB60BAEC2CFCEF33FFEE33FEED2C
:10017B0033FD020227E803F830E705C0F075F00005
:10018B00EF2FFFEE33FEED33FD40B830E7C280AA10
:10019B0075F020800E75F010800575F0087D007EDF
:1001AB00007F003392D530D5031204FBEC334010A3
:1001BB00EF33FFEE33FEED33FDEC33FCD5F0ED22E8
:0E01CB00E5F0247EA2D513CC92E7CDCEFF2224
:1001D900EDD2E7CD33EC3392D524814006E4FFFE1E
:1001E900FDFC22FCE4CFCECDCC24E0501174FF807D
:1001F900EDC3CC13CCCD13CDCE13CECF13CF04701A
:07020900F030D5DE0204FB1A
:10082C003E9248DA3ECCCCCD3F2AAAAB4000000029
:10083C003F8000003F9837F03FB504F33FD744FCAE
:10084C003E3172173EB172173F0515913EDE5BD9F2
:10085C00D2008002C200EDD2E7F8CD33EC33047045
:10086C000BBD800592D502024F02024540FBD3140A
:10087C0060F2F5F07C3FEE7A00C39496C8948B40FE
:10088C00230AC89469C8941A401A0AC89468C89470
:10089C001F40110AC8945AC89425400805F07A00E4
:1008AC00CDC2E7CDC0F08C0C8D0D8E0E8F0FEA23D0
:1008BC0023C0E0243CF582E43408F58312052F12A2
:1008CC00000AECC0E0EDC0E0EEC0E0EFC0E01205C5
:1008DC001FA80CA90DAA0EAB0F120006D0E0FBD07E
:1008EC00E0FAD0E0F9D0E0B2E7F81200FE8C0C8D03
:1008FC000D8E0E8F0F90082C7403120360A80CA998
:10090C000DAA0EAB0F12025AD0E0600F2448F582EC
:10091C00E43408F58312052F12000A8C0C8D0D8E11
:10092C000E8F0FD0E0C3947FFDE49400FC1201A065
:10093C007B187A727931783F12025AA80CA90DAA49
:10094C000EAB0F12000A30000B7BD97A5B79DE7884
:05095C003E12025A22C8
:10021000E9D2E7C933E833F892D5EDD2E7CD33EC34
:0702200033FC5002B2D522AD
:10022700EC30E7100FBF000C0EBE00080DBD000438
:100237000BEB6014A2D5EB13FCED92E7FD2274FFE4
:10024700FCFDFEFF22E480F8A2D574FF13FC7D803D
:03025700E480EF51
:10025A00EC4D6011E8497017ED33EC3304600DE49E
:10026A00FCFFFEFD22E933E8330470F8020245126E
:10027A00021058046009E4CC24815006285009026F
:10028A00024F28400302024CC0E0EB4A7044B98096
:10029A0006D0E0FB02023BEF4E701CBD8008EBFF6C
:1002AA00EAFEE9FD80EBE98DF0A4FEE5F0020343E6
:1002BA00E9CDF9EAFEEBFFEF89F0A4FCE5F0CE897F
:1002CA00F0A42EFFE435F0CD89F0A42DFEE435F03C
:1002DA008067EF4E7005BD80D780C3EF8BF0A4AC6A
:1002EA00F0EE8BF0A42CFCE435F0F8EF8AF0A42CA5
:1002FA00E5F038FCE433CB8DF0A42CFCE5F03BF8B8
:10030A00EE8AF0A42CFCE5F038F8E433CF89F0A4A7
:10031A002CFCE5F038CF3400CE89F0A42FFFE5F0AD
:10032A003EFEE433C98DF0A42EFEE5F039CD8AF005
:10033A00A42FFFE5F03EFEE43DFD33D0E0FB50077D
:10034A000BBB000F02024FEC2CFCEF33FFEE33FE27
:06035A00ED33FD02022755
:10036000C0E0EFFBEEFAEDF9ECF812025AD0E0F53E
:10037000F0EFFBEEFAEDF9ECF812051FA3A3A3A32F
:10038000E8C0E0E9C0E0EAC0E0EBC0E0C0F0120283
:100390005A12052FA3A3A3A312000AD0F0D0E0FBAA
:0D03A000D0E0FAD0E0F9D0E0F8D5F0D4229A
:03000000020B50A0
:0C0B5000787FE4F6D8FD758120020B9739
:1003AD00E709F608DFFA8046E709F208DFFA803E32
:1003BD0088828C83E709F0A3DFFA8032E309F6081F
:1003CD00DFFA8078E309F208DFFA807088828C8387
:1003DD00E309F0A3DFFA806489828A83E0A3F6083B
:1003ED00DFFA805889828A83E0A3F208DFFA804C15
:1003FD0080D280FA80C680D4806980F280338010EC
:10040D0080A680EA809A80A880DA80E280CA803354
:10041D0089828A83ECFAE493A3C8C582C8CCC583CC
:10042D00CCF0A3C8C582C8CCC583CCDFE9DEE7809C
:10043D000D89828A83E493A3F608DFF9ECFAA9F01B
:10044D00EDFB2289828A83ECFAE0A3C8C582C8CC71
:10045D00C583CCF0A3C8C582C8CCC583CCDFEADE8A
:10046D00E880DB89828A83E493A3F208DFF980CCEC
:10047D0088F0EF60010E4E60C388F0ED2402B404E5
:10048D000050B9F582EB2402B4040050AF2323458C
:06049D0082239003FD73B1
:1004A300BB010689828A83E0225002E722BBFE0257
:0904B300E32289828A83E493228A
:1004BC00BB010CE58229F582E5833AF583E02250F5
:1004CC0006E92582F8E622BBFE06E92582F8E2223F
:0D04DC00E58229F582E5833AF583E4932259
:1004E900BB010689828A83F0225002F722BBFE01F2
:0204F900F322EC
:100BDC00C2D5E830E70FB2D5E4C39BFBE49AFAE444
:100BEC0099F9E498F8EC30E717B2D5120C1212050B
:100BFC00A1E4C39BFBE49AFAE499F9E498F8800326
:100C0C001205A130D50DE4C39FFFE49EFEE49DFDCB
:040C1C00E49CFC2236
:0E04FB00C3E49FFFE49EFEE49DFDE49CFC2212
:10050900EB9FF5F0EA9E42F0E99D42F0EC6480C869
:0605190064809845F02209
:10051F00E493FC740193FD740293FE740393FF2222
:10052F00E493F8740193F9740293FA740393FB2222
:10053F00D083D082F8E4937012740193700DA3A34B
:10054F0093F8740193F5828883E47374029368605F
:06055F00EFA3A3A380DF5F
:100B5C00020C37E493A3F8E493A34003F68001F26C
:100B6C0008DFF48029E493A3F85407240CC8C3339A
:100B7C00C4540F4420C8834004F456800146F6DF69
:100B8C00E4800B0102040810204080900C76E47E77
:100B9C00019360BCA3FF543F30E509541FFEE4935E
:100BAC00A360010ECF54C025E060A840B8E493A325
:100BBC00FAE493A3F8E493A3C8C582C8CAC583CA50
:100BCC00F0A3C8C582C8CAC583CADFE9DEE780BE08
:010C7900007A
:1005650075F008758200EF2FFFEE33FECD33CDCC4D
:1005750033CCC58233C5829BED9AEC99E5829840D0
:100585000CF582EE9BFEED9AFDEC99FC0FD5F0D6AD
:10059500E4CEFBE4CDFAE4CCF9A88222B800C1B9D7
:1005A5000059BA002DEC8BF084CFCECDFCE5F0CB15
:1005B500F97818EF2FFFEE33FEED33FDEC33FCEB4E
:1005C50033FB10D703994004EB99FB0FD8E5E4F909
:1005D500FA227818EF2FFFEE33FEED33FDEC33FCF6
:1005E500C933C910D7059BE99A4007EC9BFCE99AEA
:1005F500F90FD8E0E4C9FAE4CCFB2275F010EF2F2F
:10060500FFEE33FEED33FDCC33CCC833C810D7072E
:100615009BEC9AE899400AED9BFDEC9AFCE899F869
:0E0625000FD5F0DAE4CDFBE4CCFAE4C8F922FC
:00000001FF
